:040000009DEF00F080
:10000800FACF01F0FBCF02F0E9CF03F0EACF04F01A
:10001800E1CF05F0E2CF06F0D9CF07F0DACF08F04C
:10002800F3CF09F0F4CF0AF0F6CF0BF0F7CF0CF0CE
:10003800F8CF0DF0F5CF0EF0F2A401D001D017D013
:10004800F2AA01D001D013D0F294000ED76E060E9A
:10005800D66E1E50800A590F100ED8B41D5CD8B049
:1000680001D001D004D01D4A1E2A01D000D00EC0F4
:10007800F5FF0DC0F8FF0CC0F7FF0BC0F6FF0AC074
:10008800F4FF09C0F3FF08C0DAFF07C0D9FF06C0B4
:10009800E2FF05C0E1FF04C0EAFF03C0E9FF02C0B8
:1000A800FBFF01C0FAFF1100FACF0FF0FBCF10F0F1
:1000B800E9CF11F0EACF12F0E1CF13F0E2CF14F05C
:1000C800D9CF15F0DACF16F0F3CF17F0F4CF18F038
:1000D800F6CF19F0F7CF1AF0F8CF1BF0F5CF1CF0D8
:1000E8009EA201D001D008D09DA201D001D004D099
:1000F8009E928070807200D01CC0F5FF1BC0F8FF74
:100108001AC0F7FF19C0F6FF18C0F4FF17C0F3FFB5
:1001180016C0DAFF15C0D9FF14C0E2FF13C0E1FF13
:1001280012C0EAFF11C0E9FF10C0FBFF0FC0FAFFC1
:100138001100B6EF00F0F30ED36E0C0E926E000EA7
:10014800936E800E946E000E806E000E816E000E0F
:10015800826EF28CF28E12009FEC00F08186FFD73F
:0E0168009DEF00F01E6A1D6A0001B0EF00F06E
:087FF800A0F4D0FFF1F9DFF164
:00000001FF
