:0400000054EF00F0C9
:10000800FACF01F0FBCF02F0E9CF03F0EACF04F01A
:10001800E1CF05F0E2CF06F0D9CF07F0DACF08F04C
:10002800F3CF09F0F4CF0AF0F6CF0BF0F7CF0CF0CE
:10003800F8CF0DF0F5CF0EF09EA201D001D013D06D
:100048009DA201D001D00FD09E921450800A590F62
:10005800100ED8B4135CD8B001D001D004D0134A24
:10006800142A01D000D00EC0F5FF0DC0F8FF0CC057
:10007800F7FF0BC0F6FF0AC0F4FF09C0F3FF08C082
:10008800DAFF07C0D9FF06C0E2FF05C0E1FF04C0E0
:10009800EAFF03C0E9FF02C0FBFF01C0FAFF11003D
:1000A8005CEF01F0000E106E280E0F6EB3EC00F03E
:1000B800829C829A126E030E0F6E1250EDEC00F0C5
:1000C800000E106E020E0F6EB3EC00F0126E330EBF
:1000D8000F6E1250EDEC00F0126E220E0F6E1250E1
:1000E800EDEC00F0126E290E0F6E1250EDEC00F0E0
:1000F800126E140E0F6E1250EDEC00F0126E780EA8
:100108000F6E1250EDEC00F0126E550E0F6E12507D
:10011800EDEC00F0126E6D0E0F6E1250EDEC00F06B
:10012800126E0C0E0F6E1250EDEC00F0126E010EF6
:100138000F6E1250EDEC00F0000E106E020E0F6EF6
:10014800B3EC00F0126E060E0F6E1250EDEC00F0DC
:10015800126E280E0F6E1250EDEC00F01200230EF6
:100168000F5C000E1058D8B001D001D002D016D0C4
:1001780015D05B0E116EE70EE82EFED7112EFCD7B8
:1001880000D0230E0F5E000E105A230E0F5C000ED7
:100198001058D8B001D001D0ECD700D010500F10B3
:1001A800D8A401D001D002D013D012D0030E116E02
:1001B800970EE82EFED7112EFCD700D00F06D8A038
:1001C800100610500F10D8A401D001D0EFD700D0DE
:1001D800120082880FBE01D002D0828601D082969A
:1001E8000FBC01D002D0828401D082940FBA01D012
:1001F80002D0828201D082920FB801D002D08280D0
:1002080001D08290829882880FB601D002D082866F
:1002180001D082960FB401D002D0828401D082949A
:100228000FB201D002D0828201D082920FB001D0E9
:1002380002D0828001D082908298140EE82EFED7D8
:100248001200F30ED36E0C0E926E000E936E800E9B
:10025800946E000E806E000E816E000E826EF28C1F
:10026800F28E160ECA6EEA0ECB6E56EC00F0120035
:1002780001D000D01450800A116E0F50135C10503A
:10028800800A1158D8A001D001D0F4D700D0000EB0
:10029800146E000E136E120025EC01F0000E106EA5
:1002A800010E0F6E3CEC01F0F9D7F8D754EF00F0CF
:0A02B800146A136A000150EF01F010
:087FF800A0F4D0FFF1F9DFF164
:00000001FF
