:040000006BEF00F0B2
:10000800FACF02F0FBCF03F0E9CF04F0EACF05F016
:10001800E1CF06F0E2CF07F0D9CF08F0DACF09F048
:10002800F3CF0AF0F4CF0BF0F6CF0CF0F7CF0DF0CA
:10003800F8CF0EF0F5CF0FF09EA201D001D02AD054
:100048009DA201D001D026D09E921550D8B401D0DF
:1000580001D002D0897200D0142A1550D8B401D02A
:1000680001D018D014501E0AD8B401D001D002D043
:1000780011D010D08992016E000E146E01501550E7
:10008800D8B401D002D0010E01D0000E156E02D0F6
:1000980001D000D00FC0F5FF0EC0F8FF0DC0F7FF6C
:1000A8000CC0F6FF0BC0F4FF0AC0F3FF09C0DAFF6B
:1000B80008C0D9FF07C0E2FF06C0E1FF05C0EAFF9C
:1000C80004C0E9FF03C0FBFF02C0FAFF1100E6EF1E
:1000D80000F0740ED36E9B8C0C0E926E000E936E15
:1000E800800E946E0F010F014869310E0F010F0148
:1000F800496F000E896E3F0E8A6E000E8B6E000EE1
:10010800CA6E000ECC6E1A0ECB6ECA849F82F28C19
:10011800F28E898A000E116E000E106E1150800A40
:10012800800F0A0ED8B4105CD8A001D001D002D03C
:100138001ED01DD0080EE82EFED700D08982080EEA
:10014800E82EFED700D0899280B601D002D08A84EA
:1001580001D08A94104A112A1150800A800F0A0E81
:10016800D8B4105CD8A001D001D0E4D700D0000EDC
:10017800136E000E126E1350800A7D0FE80ED8B46D
:10018800125CD8A001D001D002D0C4D7C3D7060EC4
:10019800E82EFED700D080B601D002D08A8401D0E4
:1001A8008A94124A132A1350800A7D0FE80ED8B495
:1001B800125CD8A001D001D0EAD7ACD7ABD7AAD768
:0E01C8006BEF00F0156A146A00016DEF00F095
:087FF80080F412FFF1F8DFF143
:00000001FF
